{
  "contractName": "Dao",
  "abi": [
    {
      "inputs": [
        {
          "internalType": "address",
          "name": "_nftContract",
          "type": "address"
        },
        {
          "internalType": "uint256[]",
          "name": "_tokenIDs",
          "type": "uint256[]"
        }
      ],
      "stateMutability": "nonpayable",
      "type": "constructor"
    },
    {
      "anonymous": false,
      "inputs": [
        {
          "indexed": false,
          "internalType": "uint256",
          "name": "votesUp",
          "type": "uint256"
        },
        {
          "indexed": false,
          "internalType": "uint256",
          "name": "votesDown",
          "type": "uint256"
        },
        {
          "indexed": false,
          "internalType": "address",
          "name": "voter",
          "type": "address"
        },
        {
          "indexed": false,
          "internalType": "uint256",
          "name": "proposal",
          "type": "uint256"
        },
        {
          "indexed": false,
          "internalType": "bool",
          "name": "votedFor",
          "type": "bool"
        }
      ],
      "name": "newVote",
      "type": "event"
    },
    {
      "anonymous": false,
      "inputs": [
        {
          "indexed": false,
          "internalType": "uint256",
          "name": "id",
          "type": "uint256"
        },
        {
          "indexed": false,
          "internalType": "bool",
          "name": "passed",
          "type": "bool"
        }
      ],
      "name": "proposalCount",
      "type": "event"
    },
    {
      "anonymous": false,
      "inputs": [
        {
          "indexed": false,
          "internalType": "uint256",
          "name": "id",
          "type": "uint256"
        },
        {
          "indexed": false,
          "internalType": "string",
          "name": "description",
          "type": "string"
        },
        {
          "indexed": false,
          "internalType": "uint256",
          "name": "maxVotes",
          "type": "uint256"
        },
        {
          "indexed": false,
          "internalType": "address",
          "name": "proposer",
          "type": "address"
        }
      ],
      "name": "proposalCreated",
      "type": "event"
    },
    {
      "inputs": [
        {
          "internalType": "uint256",
          "name": "",
          "type": "uint256"
        }
      ],
      "name": "Proposals",
      "outputs": [
        {
          "internalType": "uint256",
          "name": "id",
          "type": "uint256"
        },
        {
          "internalType": "bool",
          "name": "exists",
          "type": "bool"
        },
        {
          "internalType": "string",
          "name": "description",
          "type": "string"
        },
        {
          "internalType": "uint256",
          "name": "deadline",
          "type": "uint256"
        },
        {
          "internalType": "uint256",
          "name": "votesUp",
          "type": "uint256"
        },
        {
          "internalType": "uint256",
          "name": "votesDown",
          "type": "uint256"
        },
        {
          "internalType": "uint256",
          "name": "maxVotes",
          "type": "uint256"
        },
        {
          "internalType": "bool",
          "name": "countConducted",
          "type": "bool"
        },
        {
          "internalType": "bool",
          "name": "passed",
          "type": "bool"
        }
      ],
      "stateMutability": "view",
      "type": "function"
    },
    {
      "inputs": [],
      "name": "owner",
      "outputs": [
        {
          "internalType": "address",
          "name": "",
          "type": "address"
        }
      ],
      "stateMutability": "view",
      "type": "function"
    },
    {
      "inputs": [
        {
          "internalType": "uint256",
          "name": "",
          "type": "uint256"
        }
      ],
      "name": "validTokens",
      "outputs": [
        {
          "internalType": "uint256",
          "name": "",
          "type": "uint256"
        }
      ],
      "stateMutability": "view",
      "type": "function"
    },
    {
      "inputs": [
        {
          "internalType": "string",
          "name": "_description",
          "type": "string"
        },
        {
          "internalType": "address[]",
          "name": "_canVote",
          "type": "address[]"
        }
      ],
      "name": "createProposal",
      "outputs": [],
      "stateMutability": "nonpayable",
      "type": "function"
    },
    {
      "inputs": [
        {
          "internalType": "uint256",
          "name": "_id",
          "type": "uint256"
        },
        {
          "internalType": "bool",
          "name": "_vote",
          "type": "bool"
        }
      ],
      "name": "voteOnProposal",
      "outputs": [],
      "stateMutability": "nonpayable",
      "type": "function"
    },
    {
      "inputs": [
        {
          "internalType": "uint256",
          "name": "_id",
          "type": "uint256"
        }
      ],
      "name": "countVotes",
      "outputs": [],
      "stateMutability": "nonpayable",
      "type": "function"
    },
    {
      "inputs": [
        {
          "internalType": "uint256",
          "name": "_tokenId",
          "type": "uint256"
        }
      ],
      "name": "addTokenId",
      "outputs": [],
      "stateMutability": "nonpayable",
      "type": "function"
    }
  ],
  "bytecode": "0x60806040523480156200001157600080fd5b5060405162001086380380620010868339810160408190526200003491620000fc565b60008054336001600160a01b03199182161790915560018055600380549091166001600160a01b0384161790558051620000769060029060208401906200007f565b505050620001e9565b828054828255906000526020600020908101928215620000bd579160200282015b82811115620000bd578251825591602001919060010190620000a0565b50620000cb929150620000cf565b5090565b5b80821115620000cb5760008155600101620000d0565b634e487b7160e01b600052604160045260246000fd5b600080604083850312156200011057600080fd5b82516001600160a01b03811681146200012857600080fd5b602084810151919350906001600160401b03808211156200014857600080fd5b818601915086601f8301126200015d57600080fd5b815181811115620001725762000172620000e6565b8060051b604051601f19603f830116810181811085821117156200019a576200019a620000e6565b604052918252848201925083810185019189831115620001b957600080fd5b938501935b82851015620001d957845184529385019392850192620001be565b8096505050505050509250929050565b610e8d80620001f96000396000f3fe608060405234801561001057600080fd5b506004361061007d5760003560e01c8063be8bb7ba1161005b578063be8bb7ba146100da578063d1dbe7d8146100ed578063e9d3d16a14610115578063fd0d101f1461013657600080fd5b80631614665c146100825780631840f0ca146100975780638da5cb5b146100aa575b600080fd5b610095610090366004610ae2565b610149565b005b6100956100a5366004610b17565b6103c5565b6000546100bd906001600160a01b031681565b6040516001600160a01b0390911681526020015b60405180910390f35b6100956100e8366004610c0d565b6105d5565b6101006100fb366004610b17565b610700565b6040516100d199989796959493929190610d12565b610128610123366004610b17565b6107da565b6040519081526020016100d1565b610095610144366004610b17565b6107fb565b60008281526004602052604090206001015460ff166101af5760405162461bcd60e51b815260206004820152601c60248201527f546869732050726f706f73616c20646f6573206e6f742065786973740000000060448201526064015b60405180910390fd5b6101b9823361088a565b61020f5760405162461bcd60e51b815260206004820152602160248201527f596f752063616e206e6f7420766f7465206f6e20746869732050726f706f73616044820152601b60fa1b60648201526084016101a6565b600082815260046020908152604080832033845260080190915290205460ff161561028c5760405162461bcd60e51b815260206004820152602760248201527f596f75206861766520616c726561647920766f746564206f6e207468697320506044820152661c9bdc1bdcd85b60ca1b60648201526084016101a6565b6000828152600460205260409020600301544311156102ff5760405162461bcd60e51b815260206004820152602960248201527f54686520646561646c696e65206861732070617373656420666f72207468697360448201526808141c9bdc1bdcd85b60ba1b60648201526084016101a6565b6000828152600460205260409020811561032f5760048101805490600061032583610d83565b9190505550610347565b60058101805490600061034183610d83565b91905055505b336000818152600883016020908152604091829020805460ff1916600117905560048401546005850154835191825291810191909152908101919091526060810184905282151560808201527f97a3ed91f0b116dc155f238ac92aa5b825720a7bb096f53156e05d9c8ab6a30a9060a00160405180910390a1505050565b6000546001600160a01b0316331461041f5760405162461bcd60e51b815260206004820152601a60248201527f4f6e6c79204f776e65722043616e20436f756e7420566f74657300000000000060448201526064016101a6565b60008181526004602052604090206001015460ff166104805760405162461bcd60e51b815260206004820152601c60248201527f546869732050726f706f73616c20646f6573206e6f742065786973740000000060448201526064016101a6565b60008181526004602052604090206003015443116104e05760405162461bcd60e51b815260206004820152601860248201527f566f74696e6720686173206e6f7420636f6e636c75646564000000000000000060448201526064016101a6565b60008181526004602052604090206009015460ff16156105425760405162461bcd60e51b815260206004820152601760248201527f436f756e7420616c726561647920636f6e64756374656400000000000000000060448201526064016101a6565b600081815260046020819052604090912090810154600582015410156105745760098101805461ff0019166101001790555b60098101805460ff1916600117908190556040517f4556fcf667ee704924eea359363d28f06708b744ad113340982b07ef9919fb91916105c9918591610100900460ff16909182521515602082015260400190565b60405180910390a15050565b6105de33610918565b61063b5760405162461bcd60e51b815260206004820152602860248201527f4f6e6c79204e465420686f6c646572732063616e2070757420666f7274682050604482015267726f706f73616c7360c01b60648201526084016101a6565b600180546000818152600460209081526040909120918255818301805460ff1916909317909255835190916106779160028401918601906109f4565b50610683436064610d9c565b6003820155815161069d9060068301906020850190610a78565b508151600782018190556001546040517f3ec21697eb8018b62928e5f290d2bccf3af51e8b6cdf71fceab712977647bba9926106de92918791903390610db4565b60405180910390a1600180549060006106f683610d83565b9190505550505050565b600460205260009081526040902080546001820154600283018054929360ff9092169261072c90610dee565b80601f016020809104026020016040519081016040528092919081815260200182805461075890610dee565b80156107a55780601f1061077a576101008083540402835291602001916107a5565b820191906000526020600020905b81548152906001019060200180831161078857829003601f168201915b505050600384015460048501546005860154600787015460099097015495969295919450925060ff8082169161010090041689565b600281815481106107ea57600080fd5b600091825260209091200154905081565b6000546001600160a01b031633146108555760405162461bcd60e51b815260206004820152601960248201527f4f6e6c79204f776e65722043616e2041646420546f6b656e730000000000000060448201526064016101a6565b600280546001810182556000919091527f405787fa12a823e0f2b7631cc41b3ba8828b3321ca811111fa75cd3aa3bb5ace0155565b6000805b60008481526004602052604090206006015481101561090c57600084815260046020526040902060060180546001600160a01b0385169190839081106108d6576108d6610e28565b6000918252602090912001546001600160a01b0316036108fa576001915050610912565b8061090481610d83565b91505061088e565b50600090505b92915050565b6000805b6002548110156109eb57600354600280546001926001600160a01b03169162fdd58e918791908690811061095257610952610e28565b6000918252602090912001546040516001600160e01b031960e085901b1681526001600160a01b0390921660048301526024820152604401602060405180830381865afa1580156109a7573d6000803e3d6000fd5b505050506040513d601f19601f820116820180604052508101906109cb9190610e3e565b106109d95750600192915050565b806109e381610d83565b91505061091c565b50600092915050565b828054610a0090610dee565b90600052602060002090601f016020900481019282610a225760008555610a68565b82601f10610a3b57805160ff1916838001178555610a68565b82800160010185558215610a68579182015b82811115610a68578251825591602001919060010190610a4d565b50610a74929150610acd565b5090565b828054828255906000526020600020908101928215610a68579160200282015b82811115610a6857825182546001600160a01b0319166001600160a01b03909116178255602090920191600190910190610a98565b5b80821115610a745760008155600101610ace565b60008060408385031215610af557600080fd5b8235915060208301358015158114610b0c57600080fd5b809150509250929050565b600060208284031215610b2957600080fd5b5035919050565b634e487b7160e01b600052604160045260246000fd5b604051601f8201601f1916810167ffffffffffffffff81118282101715610b6f57610b6f610b30565b604052919050565b600082601f830112610b8857600080fd5b8135602067ffffffffffffffff821115610ba457610ba4610b30565b8160051b610bb3828201610b46565b9283528481018201928281019087851115610bcd57600080fd5b83870192505b84831015610c025782356001600160a01b0381168114610bf35760008081fd5b82529183019190830190610bd3565b979650505050505050565b60008060408385031215610c2057600080fd5b823567ffffffffffffffff80821115610c3857600080fd5b818501915085601f830112610c4c57600080fd5b8135602082821115610c6057610c60610b30565b610c72601f8301601f19168201610b46565b8281528882848701011115610c8657600080fd5b82828601838301376000928101820192909252909450850135915080821115610cae57600080fd5b50610cbb85828601610b77565b9150509250929050565b6000815180845260005b81811015610ceb57602081850181015186830182015201610ccf565b81811115610cfd576000602083870101525b50601f01601f19169290920160200192915050565b60006101208b83528a15156020840152806040840152610d348184018b610cc5565b60608401999099525050608081019590955260a085019390935260c0840191909152151560e08301521515610100909101529392505050565b634e487b7160e01b600052601160045260246000fd5b600060018201610d9557610d95610d6d565b5060010190565b60008219821115610daf57610daf610d6d565b500190565b848152608060208201526000610dcd6080830186610cc5565b6040830194909452506001600160a01b039190911660609091015292915050565b600181811c90821680610e0257607f821691505b602082108103610e2257634e487b7160e01b600052602260045260246000fd5b50919050565b634e487b7160e01b600052603260045260246000fd5b600060208284031215610e5057600080fd5b505191905056fea2646970667358221220c6f57e9ad22c303a83cbd11d506f2b2e06b487e4075b4c3bf17f8ff3a13a530364736f6c634300080e0033",
  "immutableReferences": {},
  "source": "// SPDX-License-Identifier: MIT\n\npragma solidity ^0.8.0;\n\n/**\n * @title DAO\n * @author Ghadi Mhawej\n * @dev only NFT holders of specific project can create and vote on proposals\n */\n\ninterface IdaoContract {\n    function balanceOf(address, uint256) external view returns (uint256);\n}\n\ncontract Dao {\n    address public owner;\n    uint256 proposalNumber;\n\n    /// @notice valid token IDs that can interact with this contract\n    uint256[] public validTokens;\n\n    /// @notice NFT contract address of which holders can interact with this contract\n    IdaoContract daoContract;\n\n    /**\n     * @notice constructor\n     * @param _nftContract contract address of NFT project\n     * @param _tokenIDs array of tokens of NFT project that will be eligible to participate in DAO\n     **/\n\n    constructor(address _nftContract, uint256[] memory _tokenIDs) {\n        owner = msg.sender;\n        proposalNumber = 1;\n        daoContract = IdaoContract(_nftContract);\n        validTokens = _tokenIDs;\n    }\n\n    /// @notice general structure of proposal\n\n    struct proposal {\n        uint256 id;\n        bool exists;\n        string description;\n        uint256 deadline;\n        uint256 votesUp;\n        uint256 votesDown;\n        address[] canVote;\n        uint256 maxVotes;\n        mapping(address => bool) voteStatus;\n        bool countConducted;\n        bool passed;\n    }\n\n    mapping(uint256 => proposal) public Proposals;\n\n    /// @notice event emitted during the creation of a new proposal\n\n    event proposalCreated(\n        uint256 id,\n        string description,\n        uint256 maxVotes,\n        address proposer\n    );\n\n    /// @notice event emitted on new vote\n\n    event newVote(\n        uint256 votesUp,\n        uint256 votesDown,\n        address voter,\n        uint256 proposal,\n        bool votedFor\n    );\n\n    event proposalCount(uint256 id, bool passed);\n\n    /**\n     * @notice private function that checks if msg sender is eligible to create a proposal\n     * @param _proposer is the address that is being checked for proposal eligibility\n     **/\n\n    function checkProposalEligibility(address _proposer)\n        private\n        view\n        returns (bool)\n    {\n        for (uint256 i = 0; i < validTokens.length; i++) {\n            if (daoContract.balanceOf(_proposer, validTokens[i]) >= 1) {\n                return true;\n            }\n        }\n        return false;\n    }\n\n    /**\n     * @notice private function that checks if msg sender is eligible to vote for specific proposal\n     * @param _id of a specific proposal\n     * @param _voter address being checked for voting eligibility of proposal\n     **/\n\n    function checkVoteEligibility(uint256 _id, address _voter)\n        private\n        view\n        returns (bool)\n    {\n        for (uint256 i = 0; i < Proposals[_id].canVote.length; i++) {\n            if (Proposals[_id].canVote[i] == _voter) {\n                return true;\n            }\n        }\n        return false;\n    }\n\n    /**\n     * @notice creates a new proposal\n     * @param _description description of proposal\n     * @param _canVote array of addresses eligible to vote on proposal\n     **/\n\n    function createProposal(\n        string memory _description,\n        address[] memory _canVote\n    ) public {\n        require(\n            checkProposalEligibility(msg.sender),\n            \"Only NFT holders can put forth Proposals\"\n        );\n\n        proposal storage newProposal = Proposals[proposalNumber];\n        newProposal.id = proposalNumber;\n        newProposal.exists = true;\n        newProposal.description = _description;\n        newProposal.deadline = block.number + 100;\n        newProposal.canVote = _canVote;\n        newProposal.maxVotes = _canVote.length;\n\n        emit proposalCreated(\n            proposalNumber,\n            _description,\n            _canVote.length,\n            msg.sender\n        );\n        proposalNumber++;\n    }\n\n    /**\n     * @notice vote on active proposal\n     * @param _id id of proposal to vote on\n     * @param _vote user can either vote true or false\n     **/\n\n    function voteOnProposal(uint256 _id, bool _vote) public {\n        require(Proposals[_id].exists, \"This Proposal does not exist\");\n        require(\n            checkVoteEligibility(_id, msg.sender),\n            \"You can not vote on this Proposal\"\n        );\n        require(\n            !Proposals[_id].voteStatus[msg.sender],\n            \"You have already voted on this Proposal\"\n        );\n        require(\n            block.number <= Proposals[_id].deadline,\n            \"The deadline has passed for this Proposal\"\n        );\n\n        proposal storage p = Proposals[_id];\n\n        if (_vote) {\n            p.votesUp++;\n        } else {\n            p.votesDown++;\n        }\n\n        p.voteStatus[msg.sender] = true;\n\n        emit newVote(p.votesUp, p.votesDown, msg.sender, _id, _vote);\n    }\n\n    /**\n     * @notice count votes of specific proposal\n     * @param _id id of proposal\n     **/\n\n    function countVotes(uint256 _id) public {\n        require(msg.sender == owner, \"Only Owner Can Count Votes\");\n        require(Proposals[_id].exists, \"This Proposal does not exist\");\n        require(\n            block.number > Proposals[_id].deadline,\n            \"Voting has not concluded\"\n        );\n        require(!Proposals[_id].countConducted, \"Count already conducted\");\n\n        proposal storage p = Proposals[_id];\n\n        if (Proposals[_id].votesDown < Proposals[_id].votesUp) {\n            p.passed = true;\n        }\n\n        p.countConducted = true;\n\n        emit proposalCount(_id, p.passed);\n    }\n\n    /**\n     * @notice add token Ids that are eligible to participate in DAO\n     * @param _tokenId Ids to be added\n     **/\n\n    function addTokenId(uint256 _tokenId) public {\n        require(msg.sender == owner, \"Only Owner Can Add Tokens\");\n\n        validTokens.push(_tokenId);\n    }\n}\n",
  "sourcePath": "C:\\Users\\Ghadi\\Desktop\\Portfolio\\DAO\\contracts\\DAO.sol",
  "compiler": {
    "name": "solc",
    "version": "0.8.14+commit.80d49f37.Emscripten.clang"
  },
  "schemaVersion": "3.4.4",
  "updatedAt": "2022-06-04T09:55:59.025Z",
  "devdoc": {
    "kind": "dev",
    "methods": {
      "addTokenId(uint256)": {
        "params": {
          "_tokenId": "Ids to be added*"
        }
      },
      "constructor": {
        "params": {
          "_nftContract": "contract address of NFT project",
          "_tokenIDs": "array of tokens of NFT project that will be eligible to participate in DAO*"
        }
      },
      "countVotes(uint256)": {
        "params": {
          "_id": "id of proposal*"
        }
      },
      "createProposal(string,address[])": {
        "params": {
          "_canVote": "array of addresses eligible to vote on proposal*",
          "_description": "description of proposal"
        }
      },
      "voteOnProposal(uint256,bool)": {
        "params": {
          "_id": "id of proposal to vote on",
          "_vote": "user can either vote true or false*"
        }
      }
    },
    "version": 1
  },
  "userdoc": {
    "events": {
      "newVote(uint256,uint256,address,uint256,bool)": {
        "notice": "event emitted on new vote"
      },
      "proposalCreated(uint256,string,uint256,address)": {
        "notice": "event emitted during the creation of a new proposal"
      }
    },
    "kind": "user",
    "methods": {
      "addTokenId(uint256)": {
        "notice": "add token Ids that are eligible to participate in DAO"
      },
      "constructor": {
        "notice": "constructor"
      },
      "countVotes(uint256)": {
        "notice": "count votes of specific proposal"
      },
      "createProposal(string,address[])": {
        "notice": "creates a new proposal"
      },
      "validTokens(uint256)": {
        "notice": "valid token IDs that can interact with this contract"
      },
      "voteOnProposal(uint256,bool)": {
        "notice": "vote on active proposal"
      }
    },
    "version": 1
  }
}